:10800000128037740175F0001281367F0A7B007888
:108010000C128094EB1201098A30EAF8128063781E
:1080200010128094E530120148740D1201481201BB
:10803000420BDFE00202F01280E27401120118121A
:108040008048740112011822C291C292C29378280A
:10805000128094780E12809478061280947801121F
:10806000809422D291C292C0E0E8A2E79297A2E661
:108070009296A2E59295A2E49294D293C293A2E33F
:108080009297A2E29296A2E19295A2E09294128037
:10809000C5D0E022C291C292C0E0E8A2E79297A2C6
:1080A000E69296A2E59295A2E49294D293C293A20C
:1080B000E39297A2E29296A2E19295A2E0929412A4
:1080C00080C5D0E022C293D293C2937590FFD29222
:1080D000C0E0D293E590C293D293C29320E7F3D04D
:1080E000E022C291C292C293C297C296D295D29414
:1080F000D293C2937404120118D293C293740112E2
:108100000118D293C2937401120118782812809436
:10811000780A128094780112809478061280942252
:10812000D083D082E493B400028008F8128063A365
:1081300002812474017315E07006E5F02480800448
:10814000E5F024C0F8128094226007781811941486
:0D81500080F7226007781C11941480F7223C
:00000001FF
