:1080000012806A740175F000128169128153434F26
:108010004E5441444F52203A00120136434F4E54C1
:1080200041444F52203A0D0A00740275F00B128140
:10803000697F0A7B00780C1280C7EB1201098A3035
:10804000EAF812809678101280C7128060E530122C
:108050000148740D1201481201420BDFDD0202F0EB
:108060007D0B7420120148DDF92212811574011272
:10807000011812807B740112011822C291C292C2AF
:108080009378281280C7780E1280C778061280C7AE
:1080900078011280C722D291C292C0E0E8A2E79292
:1080A00097A2E69296A2E59295A2E49294D293C208
:1080B00093A2E39297A2E29296A2E19295A2E09215
:1080C000941280F8D0E022C291C292C0E0E8A2E708
:1080D0009297A2E69296A2E59295A2E49294D29308
:1080E000C293A2E39297A2E29296A2E19295A2E0B5
:1080F00092941280F8D0E022C293D293C2937590EA
:10810000FFD292C0E0D293E590C293D293C2932063
:10811000E7F3D0E022C291C292C293C297C296D234
:1081200095D294D293C2937404120118D293C2933D
:108130007401120118D293C29374011201187828A5
:108140001280C7780A1280C778011280C778061299
:1081500080C722D083D082E493B400028008F81252
:108160008096A302815774017315E07006E5F02430
:10817000808004E5F024C0F81280C72260077818D8
:1081800011C71480F7226007781C11C71480F722EA
:00000001FF
