:1080000012808A740175F0001281891281735345C0
:1080100047554E4445524F203A00120136534547CA
:10802000554E4445524F203A0D0A00740275F00B2C
:108030001281897F3C7B00780C1280E7EB12807BF9
:10804000A8301280B6A8311280B678101280E77876
:10805000101280E7128071E530120148E5311201FB
:1080600048740D12014874641201420BDFCE020203
:10807000F07D0A7420120148DDF92275F00A84248B
:1080800030F530E5F02430F53122128135740112DB
:10809000011812809B740112011822C291C292C26F
:1080A0009378281280E7780E1280E778061280E72E
:1080B00078011280E722D291C292C0E0E8A2E79252
:1080C00097A2E69296A2E59295A2E49294D293C2E8
:1080D00093A2E39297A2E29296A2E19295A2E092F5
:1080E00094128118D0E022C291C292C0E0E8A2E7C7
:1080F0009297A2E69296A2E59295A2E49294D293E8
:10810000C293A2E39297A2E29296A2E19295A2E094
:108110009294128118D0E022C293D293C2937590A8
:10812000FFD292C0E0D293E590C293D293C2932043
:10813000E7F3D0E022C291C292C293C297C296D214
:1081400095D294D293C2937404120118D293C2931D
:108150007401120118D293C2937401120118782885
:108160001280E7780A1280E778011280E778061219
:1081700080E722D083D082E493B400028008F81212
:1081800080B6A302817774017315E07006E5F024D0
:10819000808004E5F024C0F81280E7226007781898
:1081A00011E71480F7226007781C11E71480F7228A
:00000001FF
