:1080000012806E740175F00012816D7FFB7B007829
:108010000C1280CBEB128055A83012809AA8311236
:10802000809AA83212809A78101280CB7810128031
:10803000CB78101280CBE530120148E531120148AF
:10804000E532120148740D12014874641201180BD4
:10805000DFC20202F075F064842430F530E5F0757B
:10806000F00A842430F531E5F02430F53222128113
:1080700019740112011812807F740112011822C2B2
:1080800091C292C29378281280CB780E1280CB785E
:10809000061280CB78011280CB22D291C292C0E02E
:1080A000E8A2E79297A2E69296A2E59295A2E492C0
:1080B00094D293C293A2E39297A2E29296A2E19203
:1080C00095A2E092941280FCD0E022C291C292C0AC
:1080D000E0E8A2E79297A2E69296A2E59295A2E442
:1080E0009294D293C293A2E39297A2E29296A2E1D3
:1080F0009295A2E092941280FCD0E022C293D29397
:10810000C2937590FFD292C0E0D293E590C293D211
:1081100093C29320E7F3D0E022C291C292C293C2ED
:1081200097C296D295D294D293C293740412011836
:10813000D293C2937401120118D293C293740112A4
:10814000011878281280CB780A1280CB780112802F
:10815000CB78061280CB22D083D082E493B4000285
:108160008008F812809AA302815B74017315E07095
:1081700006E5F024808004E5F024C0F81280CB22CC
:108180006007781811CB1480F7226007781C11CB98
:048190001480F7223E
:00000001FF
