:10800000128068740075F00012805712815120119F
:10801000200420110E20200E1F0E041F04040074E3
:108020000175F000128167128151204361726974F9
:10803000612066656C697A3A200800740275F00068
:1080400012816712815120466C6F723A20010078CC
:108050000C1280C50202F0C0F075F008A4D0F02523
:10806000F02440F81280C522128113740112011805
:10807000128079740112011822C291C292C29378BF
:10808000281280C5780E1280C578061280C5780146
:108090001280C522D291C292C0E0E8A2E79297A2D4
:1080A000E69296A2E59295A2E49294D293C293A20C
:1080B000E39297A2E29296A2E19295A2E0929412A4
:1080C00080F6D0E022C291C292C0E0E8A2E7929787
:1080D000A2E69296A2E59295A2E49294D293C293DC
:1080E000A2E39297A2E29296A2E19295A2E09294E4
:1080F0001280F6D0E022C293D293C2937590FFD241
:1081000092C0E0D293E590C293D293C29320E7F35A
:10811000D0E022C291C292C293C297C296D295D2A7
:1081200094D293C2937404120118D293C29374012F
:10813000120118D293C29374011201187828128088
:10814000C5780A1280C578011280C578061280C5EC
:1081500022D083D082E493B400028008F812809485
:10816000A302815574017315E07006E5F024808048
:1081700004E5F024C0F81280C5226007781811C504
:0E8180001480F7226007781C11C51480F722C6
:00000001FF
