:10800000128059740175F0001281581281424D4F4F
:1080100044554C4F00740275F00012815812814291
:10802000454E5452454E41444F5220544D433531F4
:1080300000120142780E1280B674FA12011874FA16
:1080400012011874FA120118780A1280B674FA1222
:10805000011874FA12011880DB12810474011201F4
:108060001812806A740112011822C291C292C2933E
:1080700078281280B6780E1280B678061280B6780C
:10808000011280B622D291C292C0E0E8A2E7929794
:10809000A2E69296A2E59295A2E49294D293C2931C
:1080A000A2E39297A2E29296A2E19295A2E0929424
:1080B0001280E7D0E022C291C292C0E0E8A2E7922B
:1080C00097A2E69296A2E59295A2E49294D293C2E8
:1080D00093A2E39297A2E29296A2E19295A2E092F5
:1080E000941280E7D0E022C293D293C2937590FF9E
:1080F000D292C0E0D293E590C293D293C29320E78C
:10810000F3D0E022C291C292C293C297C296D29596
:10811000D294D293C2937404120118D293C293746E
:1081200001120118D293C293740112011878281217
:1081300080B6780A1280B678011280B6780612806E
:10814000B622D083D082E493B400028008F8128073
:1081500085A302814674017315E07006E5F0248062
:108160008004E5F024C0F81280B622600778181168
:0F817000B61480F7226007781C11B61480F7222E
:00000001FF
