:10800000128061740175F00012816012814A486526
:108010006C6F7500740275F00012816012814A4E17
:108020006172616E6A697461206E776E001201423E
:10803000120142780C1280BE74011201187F107870
:108040001C1280BE74FA120118DFF41201427F1074
:1080500078181280BE74FA120118DFF412014280FF
:10806000DC12810C74011201181280727401120169
:108070001822C291C292C29378281280BE780E1242
:1080800080BE78061280BE78011280BE22D291C2D4
:1080900092C0E0E8A2E79297A2E69296A2E59295B6
:1080A000A2E49294D293C293A2E39297A2E2929610
:1080B000A2E19295A2E092941280EFD0E022C291C8
:1080C000C292C0E0E8A2E79297A2E69296A2E59259
:1080D00095A2E49294D293C293A2E39297A2E292E1
:1080E00096A2E19295A2E092941280EFD0E022C293
:1080F00093D293C2937590FFD292C0E0D293E59051
:10810000C293D293C29320E7F3D0E022C291C292ED
:10811000C293C297C296D295D294D293C29374045A
:10812000120118D293C2937401120118D293C29310
:10813000740112011878281280BE780A1280BE7865
:10814000011280BE78061280BE22D083D082E493D2
:10815000B400028008F812808DA302814E7401736E
:1081600015E07006E5F024808004E5F024C0F812E4
:1081700080BE226007781811BE1480F7226007784D
:078180001C11BE1480F72260
:00000001FF
