:10800000128089740175F0001281881281725365A3
:10801000726965204669626F6E61636369203A0028
:10802000740275F0001281887F017B017D03780C5A
:108030001280E6EF1201098A30EAF81280B5781052
:108040001280E6EB1201098A30EAF81280B5781046
:108050001280B5ED2EFFEEFDEFFEEF12807AA83014
:108060001280B5A8311280B578101280E67810120F
:1080700080E60AEAB407DC0202F075F00A842430D4
:10808000F530E5F02430F53122128134740112010B
:108090001812809A740112011822C291C292C293DE
:1080A00078281280E6780E1280E678061280E6784C
:1080B000011280E622D291C292C0E0E8A2E7929734
:1080C000A2E69296A2E59295A2E49294D293C293EC
:1080D000A2E39297A2E29296A2E19295A2E09294F4
:1080E000128117D0E022C291C292C0E0E8A2E792CA
:1080F00097A2E69296A2E59295A2E49294D293C2B8
:1081000093A2E39297A2E29296A2E19295A2E092C4
:1081100094128117D0E022C293D293C2937590FF3C
:10812000D292C0E0D293E590C293D293C29320E75B
:10813000F3D0E022C291C292C293C297C296D29566
:10814000D294D293C2937404120118D293C293743E
:1081500001120118D293C2937401120118782812E7
:1081600080E6780A1280E678011280E678061280AE
:10817000E622D083D082E493B400028008F8128013
:10818000B5A302817674017315E07006E5F02480D2
:108190008004E5F024C0F81280E622600778181108
:1081A000E61480F7226007781C11E61480F7227528
:1081B000F00A842430F530E5F02430F5312275F0F2
:1081C00064842430F530E5F075F00A842430F5310C
:1081D000E5F02430F53222FB7420120148DBF9224D
:00000001FF
