:108000001280347530E07531E27532E47533E37512
:1080100034457535EE7536F77537007930E7600D04
:10802000F81280601201421201420980F0780C12AD
:10803000809180CC1280DF74011201181280457487
:108040000112011822C291C292C293782812809123
:10805000780E128091780612809178011280912218
:10806000D291C292C0E0E8A2E79297A2E69296A2CD
:10807000E59295A2E49294D293C293A2E39297A23E
:10808000E29296A2E19295A2E092941280C2D0E090
:1080900022C291C292C0E0E8A2E79297A2E692962D
:1080A000A2E59295A2E49294D293C293A2E392970E
:1080B000A2E29296A2E19295A2E092941280C2D09E
:1080C000E022C293D293C2937590FFD292C0E0D2C5
:1080D00093E590C293D293C29320E7F3D0E022C2FB
:1080E00091C292C293C297C296D295D294D293C2B1
:1080F000937404120118D293C2937401120118D21E
:1081000093C29374011201187828128091780A1290
:1081100080917801128091780612809122D083D0CC
:1081200082E493B400028008F8128060A3028121E7
:1081300074017315E07006E5F024808004E5F024F6
:10814000C0F8128091226007781811911480F722EC
:108150006007781C11911480F72275F00A8424308E
:10816000F530E5F02430F5312275F064842430F5E3
:1081700030E5F075F00A842430F531E5F02430F56F
:0B8180003222FB7420120148DBF922C0
:00000001FF
