:108000001201360D0A496E677265736520756E2020
:108010006E756D65726F203A0A0012011EF530B45C
:1080200002311201360D0A4C6F73207072696D6F48
:108030007320656E2065736520696E746572766164
:108040006C6F20736F6E203A0A00FB80317B028BCD
:10805000317D007A02EB8AF084E5F0B400090D0B63
:108060008B31BD010F80EE0AEAB531E9FB8B31BDE2
:10807000010C80E10B8B31EBB530DA0202F0EB1230
:1080800001481201360D2C2020000B7D008B31EBB6
:06809000B530C00202F051
:00000001FF
