:108000001201360D0A434F4E5441444F522044450D
:1080100020353920484153544120300D0A00740165
:1080200075F00012819D128187436F6E7461646FD9
:10803000723A00740275F00B12819D780C1280FB6D
:1080400030B20C30B30280F830B24C028048227D4E
:108050003B7E3CED1281D3A8301280CAA831128039
:10806000CAA8321280CA78101280FB78101280FBE6
:1080700078101280FB740B1281ECE530120148E598
:1080800031120148E532120148740D120148120103
:10809000421DD2B330B3B1DEBA80B40202F0128115
:1080A0004974011201181280AF740112011822C222
:1080B00091C292C29378281280FB780E1280FB78CE
:1080C000061280FB78011280FB22D291C292C0E09E
:1080D000E8A2E79297A2E69296A2E59295A2E49290
:1080E00094D293C293A2E39297A2E29296A2E192D3
:1080F00095A2E0929412812CD0E022C291C292C04B
:10810000E0E8A2E79297A2E69296A2E59295A2E411
:108110009294D293C293A2E39297A2E29296A2E1A2
:108120009295A2E0929412812CD0E022C293D29335
:10813000C2937590FFD292C0E0D293E590C293D2E1
:1081400093C29320E7F3D0E022C291C292C293C2BD
:1081500097C296D295D294D293C293740412011806
:10816000D293C2937401120118D293C29374011274
:10817000011878281280FB780A1280FB780112809F
:10818000FB78061280FB22D083D082E493B40002F5
:108190008008F81280CAA302818B74017315E07005
:1081A00006E5F024808004E5F024C0F81280FB226C
:1081B0006007781811FB1480F7226007781C11FB08
:1081C0001480F72275F00A842430F530E5F024306D
:1081D000F5312275F064842430F530E5F075F00A4D
:1081E000842430F531E5F02430F53222FB7420127E
:0581F0000148DBF9224B
:00000001FF
