:108000007589201280ED1201360D0A494E475245FE
:10801000534520554E204E554D45524F20454E5408
:108020005245203020592035203A200A0012011EE6
:10803000FEB40012B40125B4023BB40351B404678A
:10804000B4057D0202F0740175F0001281EC12801B
:10805000D9F530A8301281D6120148221280467418
:108060000175F0031281EC1280D9F530A83012812D
:10807000D61201482212805C740175F0051281EC61
:108080001280D9F530A8301281D612014822128010
:108090008E740175F0081281EC1280D9F530A83089
:1080A0001281D61201482212808E740275F00012DD
:1080B00081EC1280D9F530A8301281D61201482205
:1080C0001280A7740275F0041281EC1280D9F53089
:1080D000A8301281D612014822048322002C2001EC
:1080E0002C20082C201B2C20402C207D2212819833
:1080F00074011201181280FE740112011822C2913B
:10810000C292C293782812814A780E12814A780668
:1081100012814A780112814A22D291C292C0E0E8CB
:10812000A2E79297A2E69296A2E59295A2E4929493
:10813000D293C293A2E39297A2E29296A2E1929581
:10814000A2E0929412817BD0E022C291C292C0E060
:10815000E8A2E79297A2E69296A2E59295A2E4920F
:1081600094D293C293A2E39297A2E29296A2E19252
:1081700095A2E0929412817BD0E022C293D293C266
:10818000937590FFD292C0E0D293E590C293D293C0
:10819000C29320E7F3D0E022C291C292C293C29769
:1081A000C296D295D294D293C2937404120118D27B
:1081B00093C2937401120118D293C29374011201F5
:1081C00018782812814A780A12814A780112814A65
:1081D000780612814A22D083D082E493B4000280D0
:1081E00008F8128119A30281DA74017315E0700690
:1081F000E5F024808004E5F024C0F812814A226072
:10820000077818314A1480F7226007781C314A1425
:1082100080F72275F00A842430F530E5F02430F53B
:10822000312275F064842430F530E5F075F00A846D
:108230002430F531E5F02430F53222FB74201201B0
:0482400048DBF922FC
:00000001FF
